{
  "_format": "hh-sol-artifact-1",
  "contractName": "ERC721A",
  "sourceName": "contracts/ERC721A.sol",
  "abi": [
    {
      "inputs": [
        {
          "internalType": "string",
          "name": "name_",
          "type": "string"
        },
        {
          "internalType": "string",
          "name": "symbol_",
          "type": "string"
        },
        {
          "internalType": "uint256",
          "name": "maxBatchSize_",
          "type": "uint256"
        },
        {
          "internalType": "uint256",
          "name": "collectionSize_",
          "type": "uint256"
        }
      ],
      "stateMutability": "nonpayable",
      "type": "constructor"
    },
    {
      "anonymous": false,
      "inputs": [
        {
          "indexed": true,
          "internalType": "address",
          "name": "owner",
          "type": "address"
        },
        {
          "indexed": true,
          "internalType": "address",
          "name": "approved",
          "type": "address"
        },
        {
          "indexed": true,
          "internalType": "uint256",
          "name": "tokenId",
          "type": "uint256"
        }
      ],
      "name": "Approval",
      "type": "event"
    },
    {
      "anonymous": false,
      "inputs": [
        {
          "indexed": true,
          "internalType": "address",
          "name": "owner",
          "type": "address"
        },
        {
          "indexed": true,
          "internalType": "address",
          "name": "operator",
          "type": "address"
        },
        {
          "indexed": false,
          "internalType": "bool",
          "name": "approved",
          "type": "bool"
        }
      ],
      "name": "ApprovalForAll",
      "type": "event"
    },
    {
      "anonymous": false,
      "inputs": [
        {
          "indexed": true,
          "internalType": "address",
          "name": "from",
          "type": "address"
        },
        {
          "indexed": true,
          "internalType": "address",
          "name": "to",
          "type": "address"
        },
        {
          "indexed": true,
          "internalType": "uint256",
          "name": "tokenId",
          "type": "uint256"
        }
      ],
      "name": "Transfer",
      "type": "event"
    },
    {
      "inputs": [
        {
          "internalType": "address",
          "name": "to",
          "type": "address"
        },
        {
          "internalType": "uint256",
          "name": "tokenId",
          "type": "uint256"
        }
      ],
      "name": "approve",
      "outputs": [],
      "stateMutability": "nonpayable",
      "type": "function"
    },
    {
      "inputs": [
        {
          "internalType": "address",
          "name": "owner",
          "type": "address"
        }
      ],
      "name": "balanceOf",
      "outputs": [
        {
          "internalType": "uint256",
          "name": "",
          "type": "uint256"
        }
      ],
      "stateMutability": "view",
      "type": "function"
    },
    {
      "inputs": [
        {
          "internalType": "uint256",
          "name": "tokenId",
          "type": "uint256"
        }
      ],
      "name": "getApproved",
      "outputs": [
        {
          "internalType": "address",
          "name": "",
          "type": "address"
        }
      ],
      "stateMutability": "view",
      "type": "function"
    },
    {
      "inputs": [
        {
          "internalType": "address",
          "name": "owner",
          "type": "address"
        },
        {
          "internalType": "address",
          "name": "operator",
          "type": "address"
        }
      ],
      "name": "isApprovedForAll",
      "outputs": [
        {
          "internalType": "bool",
          "name": "",
          "type": "bool"
        }
      ],
      "stateMutability": "view",
      "type": "function"
    },
    {
      "inputs": [],
      "name": "name",
      "outputs": [
        {
          "internalType": "string",
          "name": "",
          "type": "string"
        }
      ],
      "stateMutability": "view",
      "type": "function"
    },
    {
      "inputs": [],
      "name": "nextOwnerToExplicitlySet",
      "outputs": [
        {
          "internalType": "uint256",
          "name": "",
          "type": "uint256"
        }
      ],
      "stateMutability": "view",
      "type": "function"
    },
    {
      "inputs": [
        {
          "internalType": "uint256",
          "name": "tokenId",
          "type": "uint256"
        }
      ],
      "name": "ownerOf",
      "outputs": [
        {
          "internalType": "address",
          "name": "",
          "type": "address"
        }
      ],
      "stateMutability": "view",
      "type": "function"
    },
    {
      "inputs": [
        {
          "internalType": "address",
          "name": "from",
          "type": "address"
        },
        {
          "internalType": "address",
          "name": "to",
          "type": "address"
        },
        {
          "internalType": "uint256",
          "name": "tokenId",
          "type": "uint256"
        }
      ],
      "name": "safeTransferFrom",
      "outputs": [],
      "stateMutability": "nonpayable",
      "type": "function"
    },
    {
      "inputs": [
        {
          "internalType": "address",
          "name": "from",
          "type": "address"
        },
        {
          "internalType": "address",
          "name": "to",
          "type": "address"
        },
        {
          "internalType": "uint256",
          "name": "tokenId",
          "type": "uint256"
        },
        {
          "internalType": "bytes",
          "name": "_data",
          "type": "bytes"
        }
      ],
      "name": "safeTransferFrom",
      "outputs": [],
      "stateMutability": "nonpayable",
      "type": "function"
    },
    {
      "inputs": [
        {
          "internalType": "address",
          "name": "operator",
          "type": "address"
        },
        {
          "internalType": "bool",
          "name": "approved",
          "type": "bool"
        }
      ],
      "name": "setApprovalForAll",
      "outputs": [],
      "stateMutability": "nonpayable",
      "type": "function"
    },
    {
      "inputs": [
        {
          "internalType": "bytes4",
          "name": "interfaceId",
          "type": "bytes4"
        }
      ],
      "name": "supportsInterface",
      "outputs": [
        {
          "internalType": "bool",
          "name": "",
          "type": "bool"
        }
      ],
      "stateMutability": "view",
      "type": "function"
    },
    {
      "inputs": [],
      "name": "symbol",
      "outputs": [
        {
          "internalType": "string",
          "name": "",
          "type": "string"
        }
      ],
      "stateMutability": "view",
      "type": "function"
    },
    {
      "inputs": [
        {
          "internalType": "uint256",
          "name": "index",
          "type": "uint256"
        }
      ],
      "name": "tokenByIndex",
      "outputs": [
        {
          "internalType": "uint256",
          "name": "",
          "type": "uint256"
        }
      ],
      "stateMutability": "view",
      "type": "function"
    },
    {
      "inputs": [
        {
          "internalType": "address",
          "name": "owner",
          "type": "address"
        },
        {
          "internalType": "uint256",
          "name": "index",
          "type": "uint256"
        }
      ],
      "name": "tokenOfOwnerByIndex",
      "outputs": [
        {
          "internalType": "uint256",
          "name": "",
          "type": "uint256"
        }
      ],
      "stateMutability": "view",
      "type": "function"
    },
    {
      "inputs": [
        {
          "internalType": "uint256",
          "name": "tokenId",
          "type": "uint256"
        }
      ],
      "name": "tokenURI",
      "outputs": [
        {
          "internalType": "string",
          "name": "",
          "type": "string"
        }
      ],
      "stateMutability": "view",
      "type": "function"
    },
    {
      "inputs": [],
      "name": "totalSupply",
      "outputs": [
        {
          "internalType": "uint256",
          "name": "",
          "type": "uint256"
        }
      ],
      "stateMutability": "view",
      "type": "function"
    },
    {
      "inputs": [
        {
          "internalType": "address",
          "name": "from",
          "type": "address"
        },
        {
          "internalType": "address",
          "name": "to",
          "type": "address"
        },
        {
          "internalType": "uint256",
          "name": "tokenId",
          "type": "uint256"
        }
      ],
      "name": "transferFrom",
      "outputs": [],
      "stateMutability": "nonpayable",
      "type": "function"
    }
  ],
  "bytecode": "0x60c06040526000805560006007553480156200001a57600080fd5b50604051620032fa380380620032fa833981810160405281019062000040919062000251565b6000811162000086576040517f08c379a00000000000000000000000000000000000000000000000000000000081526004016200007d906200035f565b60405180910390fd5b60008211620000cc576040517f08c379a0000000000000000000000000000000000000000000000000000000008152600401620000c3906200033d565b60405180910390fd5b8360019080519060200190620000e492919062000118565b508260029080519060200190620000fd92919062000118565b508160a08181525050806080818152505050505050620005c4565b828054620001269062000431565b90600052602060002090601f0160209004810192826200014a576000855562000196565b82601f106200016557805160ff191683800117855562000196565b8280016001018555821562000196579182015b828111156200019557825182559160200191906001019062000178565b5b509050620001a59190620001a9565b5090565b5b80821115620001c4576000816000905550600101620001aa565b5090565b6000620001df620001d984620003aa565b62000381565b905082815260208101848484011115620001f857600080fd5b62000205848285620003fb565b509392505050565b600082601f8301126200021f57600080fd5b815162000231848260208601620001c8565b91505092915050565b6000815190506200024b81620005aa565b92915050565b600080600080608085870312156200026857600080fd5b600085015167ffffffffffffffff8111156200028357600080fd5b62000291878288016200020d565b945050602085015167ffffffffffffffff811115620002af57600080fd5b620002bd878288016200020d565b9350506040620002d0878288016200023a565b9250506060620002e3878288016200023a565b91505092959194509250565b6000620002fe602783620003e0565b91506200030b826200050c565b604082019050919050565b600062000325602e83620003e0565b915062000332826200055b565b604082019050919050565b600060208201905081810360008301526200035881620002ef565b9050919050565b600060208201905081810360008301526200037a8162000316565b9050919050565b60006200038d620003a0565b90506200039b828262000467565b919050565b6000604051905090565b600067ffffffffffffffff821115620003c857620003c7620004cc565b5b620003d382620004fb565b9050602081019050919050565b600082825260208201905092915050565b6000819050919050565b60005b838110156200041b578082015181840152602081019050620003fe565b838111156200042b576000848401525b50505050565b600060028204905060018216806200044a57607f821691505b602082108114156200046157620004606200049d565b5b50919050565b6200047282620004fb565b810181811067ffffffffffffffff82111715620004945762000493620004cc565b5b80604052505050565b7f4e487b7100000000000000000000000000000000000000000000000000000000600052602260045260246000fd5b7f4e487b7100000000000000000000000000000000000000000000000000000000600052604160045260246000fd5b6000601f19601f8301169050919050565b7f455243373231413a206d61782062617463682073697a65206d7573742062652060008201527f6e6f6e7a65726f00000000000000000000000000000000000000000000000000602082015250565b7f455243373231413a20636f6c6c656374696f6e206d757374206861766520612060008201527f6e6f6e7a65726f20737570706c79000000000000000000000000000000000000602082015250565b620005b581620003f1565b8114620005c157600080fd5b50565b60805160a051612d0c620005ee6000396000818161158501526115ae015260005050612d0c6000f3fe608060405234801561001057600080fd5b506004361061010b5760003560e01c80634f6ccce7116100a2578063a22cb46511610071578063a22cb465146102de578063b88d4fde146102fa578063c87b56dd14610316578063d7224ba014610346578063e985e9c5146103645761010b565b80634f6ccce7146102305780636352211e1461026057806370a082311461029057806395d89b41146102c05761010b565b806318160ddd116100de57806318160ddd146101aa57806323b872dd146101c85780632f745c59146101e457806342842e0e146102145761010b565b806301ffc9a71461011057806306fdde0314610140578063081812fc1461015e578063095ea7b31461018e575b600080fd5b61012a60048036038101906101259190611d70565b610394565b6040516101379190612153565b60405180910390f35b6101486104de565b604051610155919061216e565b60405180910390f35b61017860048036038101906101739190611dc2565b610570565b60405161018591906120ec565b60405180910390f35b6101a860048036038101906101a39190611d34565b6105f5565b005b6101b261070e565b6040516101bf9190612370565b60405180910390f35b6101e260048036038101906101dd9190611c2e565b610717565b005b6101fe60048036038101906101f99190611d34565b610727565b60405161020b9190612370565b60405180910390f35b61022e60048036038101906102299190611c2e565b610925565b005b61024a60048036038101906102459190611dc2565b610945565b6040516102579190612370565b60405180910390f35b61027a60048036038101906102759190611dc2565b610998565b60405161028791906120ec565b60405180910390f35b6102aa60048036038101906102a59190611bc9565b6109ae565b6040516102b79190612370565b60405180910390f35b6102c8610a97565b6040516102d5919061216e565b60405180910390f35b6102f860048036038101906102f39190611cf8565b610b29565b005b610314600480360381019061030f9190611c7d565b610caa565b005b610330600480360381019061032b9190611dc2565b610d06565b60405161033d919061216e565b60405180910390f35b61034e610dad565b60405161035b9190612370565b60405180910390f35b61037e60048036038101906103799190611bf2565b610db3565b60405161038b9190612153565b60405180910390f35b60007f80ac58cd000000000000000000000000000000000000000000000000000000007bffffffffffffffffffffffffffffffffffffffffffffffffffffffff1916827bffffffffffffffffffffffffffffffffffffffffffffffffffffffff1916148061045f57507f5b5e139f000000000000000000000000000000000000000000000000000000007bffffffffffffffffffffffffffffffffffffffffffffffffffffffff1916827bffffffffffffffffffffffffffffffffffffffffffffffffffffffff1916145b806104c757507f780e9d63000000000000000000000000000000000000000000000000000000007bffffffffffffffffffffffffffffffffffffffffffffffffffffffff1916827bffffffffffffffffffffffffffffffffffffffffffffffffffffffff1916145b806104d757506104d682610e47565b5b9050919050565b6060600180546104ed90612655565b80601f016020809104026020016040519081016040528092919081815260200182805461051990612655565b80156105665780601f1061053b57610100808354040283529160200191610566565b820191906000526020600020905b81548152906001019060200180831161054957829003601f168201915b5050505050905090565b600061057b82610eb1565b6105ba576040517f08c379a00000000000000000000000000000000000000000000000000000000081526004016105b190612350565b60405180910390fd5b6005600083815260200190815260200160002060009054906101000a900473ffffffffffffffffffffffffffffffffffffffff169050919050565b600061060082610998565b90508073ffffffffffffffffffffffffffffffffffffffff168373ffffffffffffffffffffffffffffffffffffffff161415610671576040517f08c379a0000000000000000000000000000000000000000000000000000000008152600401610668906122d0565b60405180910390fd5b8073ffffffffffffffffffffffffffffffffffffffff16610690610ebe565b73ffffffffffffffffffffffffffffffffffffffff1614806106bf57506106be816106b9610ebe565b610db3565b5b6106fe576040517f08c379a00000000000000000000000000000000000000000000000000000000081526004016106f590612210565b60405180910390fd5b610709838383610ec6565b505050565b60008054905090565b610722838383610f78565b505050565b6000610732836109ae565b8210610773576040517f08c379a000000000000000000000000000000000000000000000000000000000815260040161076a90612190565b60405180910390fd5b600061077d61070e565b905060008060005b838110156108e3576000600360008381526020019081526020016000206040518060400160405290816000820160009054906101000a900473ffffffffffffffffffffffffffffffffffffffff1673ffffffffffffffffffffffffffffffffffffffff1673ffffffffffffffffffffffffffffffffffffffff1681526020016000820160149054906101000a900467ffffffffffffffff1667ffffffffffffffff1667ffffffffffffffff16815250509050600073ffffffffffffffffffffffffffffffffffffffff16816000015173ffffffffffffffffffffffffffffffffffffffff161461087757806000015192505b8773ffffffffffffffffffffffffffffffffffffffff168373ffffffffffffffffffffffffffffffffffffffff1614156108cf57868414156108c057819550505050505061091f565b83806108cb906126b8565b9450505b5080806108db906126b8565b915050610785565b506040517f08c379a000000000000000000000000000000000000000000000000000000000815260040161091690612310565b60405180910390fd5b92915050565b61094083838360405180602001604052806000815250610caa565b505050565b600061094f61070e565b8210610990576040517f08c379a0000000000000000000000000000000000000000000000000000000008152600401610987906121d0565b60405180910390fd5b819050919050565b60006109a382611531565b600001519050919050565b60008073ffffffffffffffffffffffffffffffffffffffff168273ffffffffffffffffffffffffffffffffffffffff161415610a1f576040517f08c379a0000000000000000000000000000000000000000000000000000000008152600401610a1690612230565b60405180910390fd5b600460008373ffffffffffffffffffffffffffffffffffffffff1673ffffffffffffffffffffffffffffffffffffffff16815260200190815260200160002060000160009054906101000a90046fffffffffffffffffffffffffffffffff166fffffffffffffffffffffffffffffffff169050919050565b606060028054610aa690612655565b80601f0160208091040260200160405190810160405280929190818152602001828054610ad290612655565b8015610b1f5780601f10610af457610100808354040283529160200191610b1f565b820191906000526020600020905b815481529060010190602001808311610b0257829003601f168201915b5050505050905090565b610b31610ebe565b73ffffffffffffffffffffffffffffffffffffffff168273ffffffffffffffffffffffffffffffffffffffff161415610b9f576040517f08c379a0000000000000000000000000000000000000000000000000000000008152600401610b9690612290565b60405180910390fd5b8060066000610bac610ebe565b73ffffffffffffffffffffffffffffffffffffffff1673ffffffffffffffffffffffffffffffffffffffff16815260200190815260200160002060008473ffffffffffffffffffffffffffffffffffffffff1673ffffffffffffffffffffffffffffffffffffffff16815260200190815260200160002060006101000a81548160ff0219169083151502179055508173ffffffffffffffffffffffffffffffffffffffff16610c59610ebe565b73ffffffffffffffffffffffffffffffffffffffff167f17307eab39ab6107e8899845ad3d59bd9653f200f220920489ca2b5937696c3183604051610c9e9190612153565b60405180910390a35050565b610cb5848484610f78565b610cc184848484611734565b610d00576040517f08c379a0000000000000000000000000000000000000000000000000000000008152600401610cf7906122f0565b60405180910390fd5b50505050565b6060610d1182610eb1565b610d50576040517f08c379a0000000000000000000000000000000000000000000000000000000008152600401610d4790612270565b60405180910390fd5b6000610d5a6118cb565b90506000815111610d7a5760405180602001604052806000815250610da5565b80610d84846118e2565b604051602001610d959291906120c8565b6040516020818303038152906040525b915050919050565b60075481565b6000600660008473ffffffffffffffffffffffffffffffffffffffff1673ffffffffffffffffffffffffffffffffffffffff16815260200190815260200160002060008373ffffffffffffffffffffffffffffffffffffffff1673ffffffffffffffffffffffffffffffffffffffff16815260200190815260200160002060009054906101000a900460ff16905092915050565b60007f01ffc9a7000000000000000000000000000000000000000000000000000000007bffffffffffffffffffffffffffffffffffffffffffffffffffffffff1916827bffffffffffffffffffffffffffffffffffffffffffffffffffffffff1916149050919050565b6000805482109050919050565b600033905090565b826005600084815260200190815260200160002060006101000a81548173ffffffffffffffffffffffffffffffffffffffff021916908373ffffffffffffffffffffffffffffffffffffffff160217905550818373ffffffffffffffffffffffffffffffffffffffff168273ffffffffffffffffffffffffffffffffffffffff167f8c5be1e5ebec7d5bd14f71427d1e84f3dd0314c0f7b2291e5b200ac8c7c3b92560405160405180910390a4505050565b6000610f8382611531565b90506000816000015173ffffffffffffffffffffffffffffffffffffffff16610faa610ebe565b73ffffffffffffffffffffffffffffffffffffffff1614806110065750610fcf610ebe565b73ffffffffffffffffffffffffffffffffffffffff16610fee84610570565b73ffffffffffffffffffffffffffffffffffffffff16145b806110225750611021826000015161101c610ebe565b610db3565b5b905080611064576040517f08c379a000000000000000000000000000000000000000000000000000000000815260040161105b906122b0565b60405180910390fd5b8473ffffffffffffffffffffffffffffffffffffffff16826000015173ffffffffffffffffffffffffffffffffffffffff16146110d6576040517f08c379a00000000000000000000000000000000000000000000000000000000081526004016110cd90612250565b60405180910390fd5b600073ffffffffffffffffffffffffffffffffffffffff168473ffffffffffffffffffffffffffffffffffffffff161415611146576040517f08c379a000000000000000000000000000000000000000000000000000000000815260040161113d906121f0565b60405180910390fd5b6111538585856001611a8f565b6111636000848460000151610ec6565b6001600460008773ffffffffffffffffffffffffffffffffffffffff1673ffffffffffffffffffffffffffffffffffffffff16815260200190815260200160002060000160008282829054906101000a90046fffffffffffffffffffffffffffffffff166111d191906124f1565b92506101000a8154816fffffffffffffffffffffffffffffffff02191690836fffffffffffffffffffffffffffffffff1602179055506001600460008673ffffffffffffffffffffffffffffffffffffffff1673ffffffffffffffffffffffffffffffffffffffff16815260200190815260200160002060000160008282829054906101000a90046fffffffffffffffffffffffffffffffff166112759190612424565b92506101000a8154816fffffffffffffffffffffffffffffffff02191690836fffffffffffffffffffffffffffffffff16021790555060405180604001604052808573ffffffffffffffffffffffffffffffffffffffff1681526020014267ffffffffffffffff168152506003600085815260200190815260200160002060008201518160000160006101000a81548173ffffffffffffffffffffffffffffffffffffffff021916908373ffffffffffffffffffffffffffffffffffffffff16021790555060208201518160000160146101000a81548167ffffffffffffffff021916908367ffffffffffffffff160217905550905050600060018461137b919061246a565b9050600073ffffffffffffffffffffffffffffffffffffffff166003600083815260200190815260200160002060000160009054906101000a900473ffffffffffffffffffffffffffffffffffffffff1673ffffffffffffffffffffffffffffffffffffffff1614156114c1576113f181610eb1565b156114c0576040518060400160405280846000015173ffffffffffffffffffffffffffffffffffffffff168152602001846020015167ffffffffffffffff168152506003600083815260200190815260200160002060008201518160000160006101000a81548173ffffffffffffffffffffffffffffffffffffffff021916908373ffffffffffffffffffffffffffffffffffffffff16021790555060208201518160000160146101000a81548167ffffffffffffffff021916908367ffffffffffffffff1602179055509050505b5b838573ffffffffffffffffffffffffffffffffffffffff168773ffffffffffffffffffffffffffffffffffffffff167fddf252ad1be2c89b69c2b068fc378daa952ba7f163c4a11628f55a4df523b3ef60405160405180910390a46115298686866001611a95565b505050505050565b611539611abe565b61154282610eb1565b611581576040517f08c379a0000000000000000000000000000000000000000000000000000000008152600401611578906121b0565b60405180910390fd5b60007f000000000000000000000000000000000000000000000000000000000000000083106115e55760017f0000000000000000000000000000000000000000000000000000000000000000846115d89190612525565b6115e2919061246a565b90505b60008390505b8181106116f3576000600360008381526020019081526020016000206040518060400160405290816000820160009054906101000a900473ffffffffffffffffffffffffffffffffffffffff1673ffffffffffffffffffffffffffffffffffffffff1673ffffffffffffffffffffffffffffffffffffffff1681526020016000820160149054906101000a900467ffffffffffffffff1667ffffffffffffffff1667ffffffffffffffff16815250509050600073ffffffffffffffffffffffffffffffffffffffff16816000015173ffffffffffffffffffffffffffffffffffffffff16146116df5780935050505061172f565b5080806116eb9061262b565b9150506115eb565b506040517f08c379a000000000000000000000000000000000000000000000000000000000815260040161172690612330565b60405180910390fd5b919050565b60006117558473ffffffffffffffffffffffffffffffffffffffff16611a9b565b156118be578373ffffffffffffffffffffffffffffffffffffffff1663150b7a0261177e610ebe565b8786866040518563ffffffff1660e01b81526004016117a09493929190612107565b602060405180830381600087803b1580156117ba57600080fd5b505af19250505080156117eb57506040513d601f19601f820116820180604052508101906117e89190611d99565b60015b61186e573d806000811461181b576040519150601f19603f3d011682016040523d82523d6000602084013e611820565b606091505b50600081511415611866576040517f08c379a000000000000000000000000000000000000000000000000000000000815260040161185d906122f0565b60405180910390fd5b805181602001fd5b63150b7a0260e01b7bffffffffffffffffffffffffffffffffffffffffffffffffffffffff1916817bffffffffffffffffffffffffffffffffffffffffffffffffffffffff1916149150506118c3565b600190505b949350505050565b606060405180602001604052806000815250905090565b6060600082141561192a576040518060400160405280600181526020017f30000000000000000000000000000000000000000000000000000000000000008152509050611a8a565b600082905060005b6000821461195c578080611945906126b8565b915050600a8261195591906124c0565b9150611932565b60008167ffffffffffffffff81111561199e577f4e487b7100000000000000000000000000000000000000000000000000000000600052604160045260246000fd5b6040519080825280601f01601f1916602001820160405280156119d05781602001600182028036833780820191505090505b5090505b60008514611a83576001826119e99190612525565b9150600a856119f89190612701565b6030611a04919061246a565b60f81b818381518110611a40577f4e487b7100000000000000000000000000000000000000000000000000000000600052603260045260246000fd5b60200101907effffffffffffffffffffffffffffffffffffffffffffffffffffffffffffff1916908160001a905350600a85611a7c91906124c0565b94506119d4565b8093505050505b919050565b50505050565b50505050565b6000808273ffffffffffffffffffffffffffffffffffffffff163b119050919050565b6040518060400160405280600073ffffffffffffffffffffffffffffffffffffffff168152602001600067ffffffffffffffff1681525090565b6000611b0b611b06846123b0565b61238b565b905082815260208101848484011115611b2357600080fd5b611b2e8482856125e9565b509392505050565b600081359050611b4581612c7a565b92915050565b600081359050611b5a81612c91565b92915050565b600081359050611b6f81612ca8565b92915050565b600081519050611b8481612ca8565b92915050565b600082601f830112611b9b57600080fd5b8135611bab848260208601611af8565b91505092915050565b600081359050611bc381612cbf565b92915050565b600060208284031215611bdb57600080fd5b6000611be984828501611b36565b91505092915050565b60008060408385031215611c0557600080fd5b6000611c1385828601611b36565b9250506020611c2485828601611b36565b9150509250929050565b600080600060608486031215611c4357600080fd5b6000611c5186828701611b36565b9350506020611c6286828701611b36565b9250506040611c7386828701611bb4565b9150509250925092565b60008060008060808587031215611c9357600080fd5b6000611ca187828801611b36565b9450506020611cb287828801611b36565b9350506040611cc387828801611bb4565b925050606085013567ffffffffffffffff811115611ce057600080fd5b611cec87828801611b8a565b91505092959194509250565b60008060408385031215611d0b57600080fd5b6000611d1985828601611b36565b9250506020611d2a85828601611b4b565b9150509250929050565b60008060408385031215611d4757600080fd5b6000611d5585828601611b36565b9250506020611d6685828601611bb4565b9150509250929050565b600060208284031215611d8257600080fd5b6000611d9084828501611b60565b91505092915050565b600060208284031215611dab57600080fd5b6000611db984828501611b75565b91505092915050565b600060208284031215611dd457600080fd5b6000611de284828501611bb4565b91505092915050565b611df481612559565b82525050565b611e038161256b565b82525050565b6000611e14826123e1565b611e1e81856123f7565b9350611e2e8185602086016125f8565b611e37816127ee565b840191505092915050565b6000611e4d826123ec565b611e578185612408565b9350611e678185602086016125f8565b611e70816127ee565b840191505092915050565b6000611e86826123ec565b611e908185612419565b9350611ea08185602086016125f8565b80840191505092915050565b6000611eb9602283612408565b9150611ec4826127ff565b604082019050919050565b6000611edc602a83612408565b9150611ee78261284e565b604082019050919050565b6000611eff602383612408565b9150611f0a8261289d565b604082019050919050565b6000611f22602583612408565b9150611f2d826128ec565b604082019050919050565b6000611f45603983612408565b9150611f508261293b565b604082019050919050565b6000611f68602b83612408565b9150611f738261298a565b604082019050919050565b6000611f8b602683612408565b9150611f96826129d9565b604082019050919050565b6000611fae602f83612408565b9150611fb982612a28565b604082019050919050565b6000611fd1601a83612408565b9150611fdc82612a77565b602082019050919050565b6000611ff4603283612408565b9150611fff82612aa0565b604082019050919050565b6000612017602283612408565b915061202282612aef565b604082019050919050565b600061203a603383612408565b915061204582612b3e565b604082019050919050565b600061205d602e83612408565b915061206882612b8d565b604082019050919050565b6000612080602f83612408565b915061208b82612bdc565b604082019050919050565b60006120a3602d83612408565b91506120ae82612c2b565b604082019050919050565b6120c2816125df565b82525050565b60006120d48285611e7b565b91506120e08284611e7b565b91508190509392505050565b60006020820190506121016000830184611deb565b92915050565b600060808201905061211c6000830187611deb565b6121296020830186611deb565b61213660408301856120b9565b81810360608301526121488184611e09565b905095945050505050565b60006020820190506121686000830184611dfa565b92915050565b600060208201905081810360008301526121888184611e42565b905092915050565b600060208201905081810360008301526121a981611eac565b9050919050565b600060208201905081810360008301526121c981611ecf565b9050919050565b600060208201905081810360008301526121e981611ef2565b9050919050565b6000602082019050818103600083015261220981611f15565b9050919050565b6000602082019050818103600083015261222981611f38565b9050919050565b6000602082019050818103600083015261224981611f5b565b9050919050565b6000602082019050818103600083015261226981611f7e565b9050919050565b6000602082019050818103600083015261228981611fa1565b9050919050565b600060208201905081810360008301526122a981611fc4565b9050919050565b600060208201905081810360008301526122c981611fe7565b9050919050565b600060208201905081810360008301526122e98161200a565b9050919050565b600060208201905081810360008301526123098161202d565b9050919050565b6000602082019050818103600083015261232981612050565b9050919050565b6000602082019050818103600083015261234981612073565b9050919050565b6000602082019050818103600083015261236981612096565b9050919050565b600060208201905061238560008301846120b9565b92915050565b60006123956123a6565b90506123a18282612687565b919050565b6000604051905090565b600067ffffffffffffffff8211156123cb576123ca6127bf565b5b6123d4826127ee565b9050602081019050919050565b600081519050919050565b600081519050919050565b600082825260208201905092915050565b600082825260208201905092915050565b600081905092915050565b600061242f826125a3565b915061243a836125a3565b9250826fffffffffffffffffffffffffffffffff0382111561245f5761245e612732565b5b828201905092915050565b6000612475826125df565b9150612480836125df565b9250827fffffffffffffffffffffffffffffffffffffffffffffffffffffffffffffffff038211156124b5576124b4612732565b5b828201905092915050565b60006124cb826125df565b91506124d6836125df565b9250826124e6576124e5612761565b5b828204905092915050565b60006124fc826125a3565b9150612507836125a3565b92508282101561251a57612519612732565b5b828203905092915050565b6000612530826125df565b915061253b836125df565b92508282101561254e5761254d612732565b5b828203905092915050565b6000612564826125bf565b9050919050565b60008115159050919050565b60007fffffffff0000000000000000000000000000000000000000000000000000000082169050919050565b60006fffffffffffffffffffffffffffffffff82169050919050565b600073ffffffffffffffffffffffffffffffffffffffff82169050919050565b6000819050919050565b82818337600083830152505050565b60005b838110156126165780820151818401526020810190506125fb565b83811115612625576000848401525b50505050565b6000612636826125df565b9150600082141561264a57612649612732565b5b600182039050919050565b6000600282049050600182168061266d57607f821691505b6020821081141561268157612680612790565b5b50919050565b612690826127ee565b810181811067ffffffffffffffff821117156126af576126ae6127bf565b5b80604052505050565b60006126c3826125df565b91507fffffffffffffffffffffffffffffffffffffffffffffffffffffffffffffffff8214156126f6576126f5612732565b5b600182019050919050565b600061270c826125df565b9150612717836125df565b92508261272757612726612761565b5b828206905092915050565b7f4e487b7100000000000000000000000000000000000000000000000000000000600052601160045260246000fd5b7f4e487b7100000000000000000000000000000000000000000000000000000000600052601260045260246000fd5b7f4e487b7100000000000000000000000000000000000000000000000000000000600052602260045260246000fd5b7f4e487b7100000000000000000000000000000000000000000000000000000000600052604160045260246000fd5b6000601f19601f8301169050919050565b7f455243373231413a206f776e657220696e646578206f7574206f6620626f756e60008201527f6473000000000000000000000000000000000000000000000000000000000000602082015250565b7f455243373231413a206f776e657220717565727920666f72206e6f6e6578697360008201527f74656e7420746f6b656e00000000000000000000000000000000000000000000602082015250565b7f455243373231413a20676c6f62616c20696e646578206f7574206f6620626f7560008201527f6e64730000000000000000000000000000000000000000000000000000000000602082015250565b7f455243373231413a207472616e7366657220746f20746865207a65726f20616460008201527f6472657373000000000000000000000000000000000000000000000000000000602082015250565b7f455243373231413a20617070726f76652063616c6c6572206973206e6f74206f60008201527f776e6572206e6f7220617070726f76656420666f7220616c6c00000000000000602082015250565b7f455243373231413a2062616c616e636520717565727920666f7220746865207a60008201527f65726f2061646472657373000000000000000000000000000000000000000000602082015250565b7f455243373231413a207472616e736665722066726f6d20696e636f727265637460008201527f206f776e65720000000000000000000000000000000000000000000000000000602082015250565b7f4552433732314d657461646174613a2055524920717565727920666f72206e6f60008201527f6e6578697374656e7420746f6b656e0000000000000000000000000000000000602082015250565b7f455243373231413a20617070726f766520746f2063616c6c6572000000000000600082015250565b7f455243373231413a207472616e736665722063616c6c6572206973206e6f742060008201527f6f776e6572206e6f7220617070726f7665640000000000000000000000000000602082015250565b7f455243373231413a20617070726f76616c20746f2063757272656e74206f776e60008201527f6572000000000000000000000000000000000000000000000000000000000000602082015250565b7f455243373231413a207472616e7366657220746f206e6f6e204552433732315260008201527f6563656976657220696d706c656d656e74657200000000000000000000000000602082015250565b7f455243373231413a20756e61626c6520746f2067657420746f6b656e206f662060008201527f6f776e657220627920696e646578000000000000000000000000000000000000602082015250565b7f455243373231413a20756e61626c6520746f2064657465726d696e652074686560008201527f206f776e6572206f6620746f6b656e0000000000000000000000000000000000602082015250565b7f455243373231413a20617070726f76656420717565727920666f72206e6f6e6560008201527f78697374656e7420746f6b656e00000000000000000000000000000000000000602082015250565b612c8381612559565b8114612c8e57600080fd5b50565b612c9a8161256b565b8114612ca557600080fd5b50565b612cb181612577565b8114612cbc57600080fd5b50565b612cc8816125df565b8114612cd357600080fd5b5056fea26469706673582212208e8b783e318a110ab375cf1eba4c3bce70767a53d2c2ff0afee47bd297fccfab64736f6c63430008040033",
  "linkReferences": {},
  "deployedLinkReferences": {}
}